{
  "_format": "hh-sol-artifact-1",
  "contractName": "MyLottery",
  "sourceName": "contracts/MyLottery.sol",
  "abi": [
    {
      "anonymous": false,
      "inputs": [
        {
          "indexed": true,
          "internalType": "uint256",
          "name": "lotteryId",
          "type": "uint256"
        },
        {
          "indexed": false,
          "internalType": "uint256",
          "name": "currentLotteryId",
          "type": "uint256"
        }
      ],
      "name": "LotteryClose",
      "type": "event"
    },
    {
      "anonymous": false,
      "inputs": [
        {
          "indexed": false,
          "internalType": "uint256",
          "name": "currentLotteryId",
          "type": "uint256"
        },
        {
          "indexed": false,
          "internalType": "uint256",
          "name": "finalNumber",
          "type": "uint256"
        }
      ],
      "name": "LotteryNumberDrawn",
      "type": "event"
    },
    {
      "anonymous": false,
      "inputs": [
        {
          "indexed": true,
          "internalType": "uint256",
          "name": "lotteryId",
          "type": "uint256"
        },
        {
          "indexed": false,
          "internalType": "uint256",
          "name": "startTime",
          "type": "uint256"
        },
        {
          "indexed": false,
          "internalType": "uint256",
          "name": "endTime",
          "type": "uint256"
        }
      ],
      "name": "LotteryOpen",
      "type": "event"
    },
    {
      "anonymous": false,
      "inputs": [
        {
          "indexed": false,
          "internalType": "address",
          "name": "buyer",
          "type": "address"
        },
        {
          "indexed": false,
          "internalType": "uint256",
          "name": "lotteryId",
          "type": "uint256"
        }
      ],
      "name": "TicketsPurchase",
      "type": "event"
    },
    {
      "inputs": [
        {
          "internalType": "uint256",
          "name": "_lotteryId",
          "type": "uint256"
        },
        {
          "internalType": "uint256",
          "name": "_ticketId",
          "type": "uint256"
        }
      ],
      "name": "_calculateRewardsForTicketId",
      "outputs": [],
      "stateMutability": "nonpayable",
      "type": "function"
    },
    {
      "inputs": [
        {
          "internalType": "uint256",
          "name": "_lotteryId",
          "type": "uint256"
        },
        {
          "internalType": "uint256",
          "name": "_number",
          "type": "uint256"
        },
        {
          "internalType": "uint256",
          "name": "_amount",
          "type": "uint256"
        }
      ],
      "name": "buyTicket",
      "outputs": [
        {
          "internalType": "uint256",
          "name": "lotteryId_",
          "type": "uint256"
        },
        {
          "internalType": "address",
          "name": "buyer_",
          "type": "address"
        },
        {
          "internalType": "uint256",
          "name": "number_",
          "type": "uint256"
        },
        {
          "internalType": "uint256",
          "name": "amount_",
          "type": "uint256"
        }
      ],
      "stateMutability": "payable",
      "type": "function"
    },
    {
      "inputs": [
        {
          "internalType": "uint256",
          "name": "_lotteryId",
          "type": "uint256"
        },
        {
          "internalType": "uint256",
          "name": "_ticketId",
          "type": "uint256"
        }
      ],
      "name": "claimTicket",
      "outputs": [],
      "stateMutability": "nonpayable",
      "type": "function"
    },
    {
      "inputs": [
        {
          "internalType": "uint256",
          "name": "_lotteryId",
          "type": "uint256"
        }
      ],
      "name": "closeLottery",
      "outputs": [],
      "stateMutability": "nonpayable",
      "type": "function"
    },
    {
      "inputs": [
        {
          "internalType": "uint256",
          "name": "_lotteryId",
          "type": "uint256"
        },
        {
          "internalType": "uint256",
          "name": "_finalNumber",
          "type": "uint256"
        }
      ],
      "name": "drawFinalNumberAndMakeLotteryClaimable",
      "outputs": [],
      "stateMutability": "nonpayable",
      "type": "function"
    },
    {
      "inputs": [],
      "name": "reward",
      "outputs": [
        {
          "internalType": "uint256",
          "name": "",
          "type": "uint256"
        }
      ],
      "stateMutability": "view",
      "type": "function"
    },
    {
      "inputs": [
        {
          "internalType": "uint256",
          "name": "_endTime",
          "type": "uint256"
        }
      ],
      "name": "startLottery",
      "outputs": [],
      "stateMutability": "nonpayable",
      "type": "function"
    },
    {
      "inputs": [],
      "name": "viewCurrentLotteryId",
      "outputs": [
        {
          "internalType": "uint256",
          "name": "",
          "type": "uint256"
        }
      ],
      "stateMutability": "view",
      "type": "function"
    }
  ],
  "bytecode": "0x608060405234801561001057600080fd5b50610e6c806100206000396000f3fe60806040526004361061007b5760003560e01c8063c4c6710d1161004e578063c4c6710d14610128578063c6bec93a1461015b578063ed06a74014610184578063f5466c8f146101ad5761007b565b8063228cb7331461008057806380a06160146100ab5780639d8ca531146100d6578063a4abe58c146100ff575b600080fd5b34801561008c57600080fd5b506100956101d6565b6040516100a29190610c04565b60405180910390f35b3480156100b757600080fd5b506100c06101db565b6040516100cd9190610c04565b60405180910390f35b3480156100e257600080fd5b506100fd60048036038101906100f891906109ba565b6101e4565b005b34801561010b57600080fd5b50610126600480360381019061012191906109e3565b61035b565b005b610142600480360381019061013d9190610a1f565b610534565b6040516101529493929190610c1f565b60405180910390f35b34801561016757600080fd5b50610182600480360381019061017d91906109ba565b610736565b005b34801561019057600080fd5b506101ab60048036038101906101a691906109e3565b610872565b005b3480156101b957600080fd5b506101d460048036038101906101cf91906109e3565b6109a1565b005b603c81565b60008054905090565b6000600381111561021e577f4e487b7100000000000000000000000000000000000000000000000000000000600052602160045260246000fd5b6002600083815260200190815260200160002060000160009054906101000a900460ff16600381111561027a577f4e487b7100000000000000000000000000000000000000000000000000000000600052602160045260246000fd5b146102ba576040517f08c379a00000000000000000000000000000000000000000000000000000000081526004016102b190610b84565b60405180910390fd5b600280600083815260200190815260200160002060000160006101000a81548160ff02191690836003811115610319577f4e487b7100000000000000000000000000000000000000000000000000000000600052602160045260246000fd5b0217905550807f3728e75294796694d59d2ffced9c394279baf7b9ebd2702db43f5f04bac679296000546040516103509190610c04565b60405180910390a250565b60026003811115610395577f4e487b7100000000000000000000000000000000000000000000000000000000600052602160045260246000fd5b6002600084815260200190815260200160002060000160009054906101000a900460ff1660038111156103f1577f4e487b7100000000000000000000000000000000000000000000000000000000600052602160045260246000fd5b14610431576040517f08c379a000000000000000000000000000000000000000000000000000000000815260040161042890610be4565b60405180910390fd5b6063811115610475576040517f08c379a000000000000000000000000000000000000000000000000000000000815260040161046c90610bc4565b60405180910390fd5b80600260008481526020019081526020016000206003018190555060036002600084815260200190815260200160002060000160006101000a81548160ff021916908360038111156104f0577f4e487b7100000000000000000000000000000000000000000000000000000000600052602160045260246000fd5b02179055507f5a724f8090e5112c7e2c0eca7eeba9abf1a26dfad55f3c06f87a281c6712add260005482604051610528929190610c64565b60405180910390a15050565b600080600080600080541161057e576040517f08c379a000000000000000000000000000000000000000000000000000000000815260040161057590610b84565b60405180910390fd5b600260008881526020019081526020016000206002015442106105d6576040517f08c379a00000000000000000000000000000000000000000000000000000000081526004016105cd90610ba4565b60405180910390fd5b606386111561061a576040517f08c379a000000000000000000000000000000000000000000000000000000000815260040161061190610bc4565b60405180910390fd5b339250869350859150849050604051806080016040528060015481526020013373ffffffffffffffffffffffffffffffffffffffff168152602001878152602001868152506003600060015481526020019081526020016000206000820151816000015560208201518160010160006101000a81548173ffffffffffffffffffffffffffffffffffffffff021916908373ffffffffffffffffffffffffffffffffffffffff1602179055506040820151816002015560608201518160030155905050600160008154809291906106ef90610cda565b91905055507fe23b461eeed3050b94c37e728bd38158dbcd40bb83994f44bfb639678c6a10293388604051610725929190610b3b565b60405180910390a193509350935093565b60008081548092919061074890610cda565b9190505550604051806080016040528060006003811115610792577f4e487b7100000000000000000000000000000000000000000000000000000000600052602160045260246000fd5b81526020014281526020018281526020016000815250600260008054815260200190815260200160002060008201518160000160006101000a81548160ff0219169083600381111561080d577f4e487b7100000000000000000000000000000000000000000000000000000000600052602160045260246000fd5b02179055506020820151816001015560408201518160020155606082015181600301559050506000547ff44a91410f7dcc5e2fb8de72a6799ffcf46fa3b9099f1e1571757127e1923b2c4283604051610867929190610c64565b60405180910390a250565b6003808111156108ab577f4e487b7100000000000000000000000000000000000000000000000000000000600052602160045260246000fd5b6002600084815260200190815260200160002060000160009054906101000a900460ff166003811115610907577f4e487b7100000000000000000000000000000000000000000000000000000000600052602160045260246000fd5b14610947576040517f08c379a000000000000000000000000000000000000000000000000000000000815260040161093e90610b64565b60405180910390fd5b60006003600083815260200190815260200160002060010160006101000a81548173ffffffffffffffffffffffffffffffffffffffff021916908373ffffffffffffffffffffffffffffffffffffffff1602179055505050565b5050565b6000813590506109b481610e1f565b92915050565b6000602082840312156109cc57600080fd5b60006109da848285016109a5565b91505092915050565b600080604083850312156109f657600080fd5b6000610a04858286016109a5565b9250506020610a15858286016109a5565b9150509250929050565b600080600060608486031215610a3457600080fd5b6000610a42868287016109a5565b9350506020610a53868287016109a5565b9250506040610a64868287016109a5565b9150509250925092565b610a7781610c9e565b82525050565b6000610a8a601583610c8d565b9150610a9582610d52565b602082019050919050565b6000610aad601483610c8d565b9150610ab882610d7b565b602082019050919050565b6000610ad0600f83610c8d565b9150610adb82610da4565b602082019050919050565b6000610af3601783610c8d565b9150610afe82610dcd565b602082019050919050565b6000610b16601383610c8d565b9150610b2182610df6565b602082019050919050565b610b3581610cd0565b82525050565b6000604082019050610b506000830185610a6e565b610b5d6020830184610b2c565b9392505050565b60006020820190508181036000830152610b7d81610a7d565b9050919050565b60006020820190508181036000830152610b9d81610aa0565b9050919050565b60006020820190508181036000830152610bbd81610ac3565b9050919050565b60006020820190508181036000830152610bdd81610ae6565b9050919050565b60006020820190508181036000830152610bfd81610b09565b9050919050565b6000602082019050610c196000830184610b2c565b92915050565b6000608082019050610c346000830187610b2c565b610c416020830186610a6e565b610c4e6040830185610b2c565b610c5b6060830184610b2c565b95945050505050565b6000604082019050610c796000830185610b2c565b610c866020830184610b2c565b9392505050565b600082825260208201905092915050565b6000610ca982610cb0565b9050919050565b600073ffffffffffffffffffffffffffffffffffffffff82169050919050565b6000819050919050565b6000610ce582610cd0565b91507fffffffffffffffffffffffffffffffffffffffffffffffffffffffffffffffff821415610d1857610d17610d23565b5b600182019050919050565b7f4e487b7100000000000000000000000000000000000000000000000000000000600052601160045260246000fd5b7f4c6f7474657279206e6f7420636c61696d61626c650000000000000000000000600082015250565b7f4c6f7474657279206e6f74206f70656e20796574000000000000000000000000600082015250565b7f4c6f7474657279206973206f7665720000000000000000000000000000000000600082015250565b7f4e756d626572206265747765656e20303020746f203939000000000000000000600082015250565b7f4c6f7474657279206973206e6f74206f76657200000000000000000000000000600082015250565b610e2881610cd0565b8114610e3357600080fd5b5056fea26469706673582212207dd9ae39148ef511c8c75392235e8930612f6029f265045aeea97a6b7297011864736f6c63430008040033",
  "linkReferences": {},
  "deployedLinkReferences": {}
}